:020000040000fa
:080000000001040000000000f3
:020000040000fa
:04000800c80100002b
:020000040000fa
:04000c00c801000027
:020000040000fa
:04001000c801000023
:020000040000fa
:04001400c80100001f
:020000040000fa
:04001800c80100001b
:020000040000fa
:04001c00c801000017
:020000040000fa
:04002000c801000013
:020000040000fa
:04002400c80100000f
:020000040000fa
:04002800c80100000b
:020000040000fa
:04002c00c801000007
:020000040000fa
:04003000c801000003
:020000040000fa
:04003400da050000e9
:020000040000fa
:04003800c8010000fb
:020000040000fa
:04003c00c8010000f7
:020000040000fa
:04004000c8010000f3
:020000040000fa
:04004400c8010000ef
:020000040000fa
:040048003e0700006f
:020000040000fa
:04004c00c8010000e7
:020000040000fa
:04005000c8010000e3
:020000040000fa
:04005400c8010000df
:020000040000fa
:04005800c8010000db
:020000040000fa
:04005c00c8010000d7
:020000040000fa
:04006000c8010000d3
:020000040000fa
:04006400c8010000cf
:020000040000fa
:04006800c8010000cb
:020000040000fa
:04006c00c8010000c7
:020000040000fa
:04007000c8010000c3
:020000040000fa
:04007400c8010000bf
:020000040000fa
:04007800c8010000bb
:020000040000fa
:04007c00c8010000b7
:020000040000fa
:04008000c8010000b3
:020000040000fa
:04008400c8010000af
:020000040000fa
:04008800c8010000ab
:020000040000fa
:04008c00c8010000a7
:020000040000fa
:04009000c8010000a3
:020000040000fa
:04009400c80100009f
:020000040000fa
:04009800c80100009b
:020000040000fa
:04009c00c801000097
:020000040000fa
:0400a000c801000093
:020000040000fa
:0400a400c80100008f
:020000040000fa
:0400a800c80100008b
:020000040000fa
:0400ac00c801000087
:020000040000fa
:0400b000c801000083
:020000040000fa
:0400b400c80100007f
:020000040000fa
:0400b800c80100007b
:020000040000fa
:0400bc00c801000077
:020000040000fa
:0400c000c801000073
:020000040000fa
:0400c400c80100006f
:020000040000fa
:0400c800c80100006b
:020000040000fa
:0400cc00c801000067
:020000040000fa
:0400d000c801000063
:020000040000fa
:0400d400c80100005f
:020000040000fa
:0400d800c80100005b
:020000040000fa
:04010800c80100002a
:020000040000fa
:04010c00c801000026
:020000040000fa
:04011000c801000022
:020000040000fa
:04011400c80100001e
:020000040000fa
:04011800c80100001a
:020000040000fa
:04011c00c801000016
:020000040000fa
:04012000c801000012
:020000040000fa
:04012400c80100000e
:020000040000fa
:04012800c80100000a
:020000040000fa
:04012c00c801000006
:020000040000fa
:04013000c801000002
:020000040000fa
:04013400c8010000fe
:020000040000fa
:04013800c8010000fa
:020000040000fa
:04013c00c8010000f6
:020000040000fa
:04014000c8010000f2
:020000040000fa
:04014400c8010000ee
:020000040000fa
:04014800c8010000ea
:020000040000fa
:04014c00c8010000e6
:020000040000fa
:04015000c8010000e2
:020000040000fa
:04015400c8010000de
:020000040000fa
:04015800c8010000da
:020000040000fa
:04015c00c8010000d6
:020000040000fa
:04016000c8010000d2
:020000040000fa
:04016400c8010000ce
:020000040000fa
:04016800c8010000ca
:020000040000fa
:04016c00c8010000c6
:020000040000fa
:04017000c8010000c2
:020000040000fa
:04017400c8010000be
:020000040000fa
:04017800c8010000ba
:020000040000fa
:04017c00c8010000b6
:020000040000fa
:04018000c8010000b2
:020000040000fa
:04018400c8010000ae
:020000040000fa
:04018800c8010000aa
:020000040000fa
:04018c00c8010000a6
:020000040000fa
:04019000c8010000a2
:020000040000fa
:04019400c80100009e
:020000040000fa
:04019800c80100009a
:020000040000fa
:04019c00c801000096
:020000040000fa
:0401a000c801000092
:020000040000fa
:0401a400c80100008e
:020000040000fa
:0401a800c80100008a
:020000040000fa
:0401ac00c801000086
:020000040000fa
:0401b000c801000082
:020000040000fa
:0401b400c80100007e
:020000040000fa
:0401b800c80100007a
:020000040000fa
:0401bc00c801000076
:020000040000fa
:0401c000c801000072
:020000040000fa
:0401c400c80100006e
:020000040000fa
:0401c800c80100006a
:020000040000fa
:0401cc00c801000066
:020000040000fa
:0401d000c801000062
:020000040000fa
:0401d400c80100005e
:020000040000fa
:0401d800c80100005a
:020000040000fa
:100200008f9520000ebf20000e0188000000000026
:10021000000020000000e000020032000001200089
:1002200020028800140007005b0007000000e000c7
:1002300003003a00e0e12000010020000200370046
:100240000000200001002000810f7000010032003a
:1002500014000700000020000000e000020032004f
:100260000000020000000000400d0200000000003d
:100270000040da000000fe004440a900c002200057
:100280000000e0000300320000002000a001880010
:100290004440a800000006008a1f78008b1f7800e9
:1002a0000000060091018800800478000000eb0047
:1002b0001a003700e284440032a0b4009905ba0065
:1002c000e284440032a0b4009906ba00e2844400fb
:1002d00032a0b4000006eb00476fde00fd07b2005d
:1002e000636ce10003003a00ebff07000000eb0045
:1002f0000a003700606ce10004003a00005deb008a
:100300008b05e900fdff3e00040037006168e10055
:10031000010032000086eb000b00070019c7ba008d
:100320001905ba000e04e00003003a000a00e000dc
:10033000e0ff3a0000000600fe07b2009e018800c0
:100340008a047800f5ff3700395dba008b05e900b3
:100350000c003200295dba008b05e900080032006c
:100360000c00e00003003a00e284440032a0b40034
:10037000f5ff370019ddba008b05e900faff3a00f6
:100380008904e800e184440032a0b40000000600c3
:100390000040da000000fe000000050003f0a200ab
:1003a000889fbe008a9fbe008c1f7800fe00070059
:1003b000050133006450e1004f0032006420e10089
:1003c0005200320003826c0007003b000905d00098
:1003d0000306d000820f54000c065d0002003900b5
:1003e00002003200890178000306780085825500fa
:1003f00004003d000003fd008103fd008502ea00ca
:100400008b854200840f720002003b0060001000e8
:10041000e08018006011b8000005eb007a28e100c8
:100420000a00390006007800c75ddd00f707b2005a
:10043000878075002d003700828171000a017800e5
:10044000610560008180d1000080d3008502e90051
:10045000f9ff3b00060440008784480002003b008f
:1004600060041400e0841c000988a3000700320027
:100470008a81710082817100610164008904d10068
:100480000884d3008b05e800170037000978a30023
:1004900013003a000b00e000130034008b05e90064
:1004a0000804440089844c000a4474000978a300bd
:1004b0000d003a000b00e000070034008b05e90056
:1004c0000804440089844c0001003a000b0020001d
:1004d0000978a300f7ff32000001eb0002003700ab
:1004e000828171000a017800740007000cf0a700f7
:1004f00001f0a000bd0037006420e10002003a00d6
:10050000838f6c00bd0033000801be000200be00f6
:10051000b6003700889fbe008a9fbe008c1f7800ff
:10052000a1000700a800330003866c006450e100be
:100530002e0032006420e100330032006150e100ff
:100540002f0032006120e100310032008585550026
:10055000eb07b00009002000080420000500370068
:100560000804440089844c000a003100060343005b
:1005700087834b000001530081815b00f8ff33004b
:100580000203be000800a0000804440089844c0057
:10059000f6ff3900c639dd00830173000100320027
:1005a000130020008904d1000884d3000998a30017
:1005b000050032000800a7000300a0008904d10054
:1005c0000884d3008b05e8008904d1000884d30097
:1005d0000001eb000281d2003800070001f0a10009
:1005e0000cf0a70001f0a000800037006420e100bb
:1005f000820032000801be000200be00f7ff370093
:100600006120e1007d0032006000b800f3ff370098
:100610000000200001f82700f0ff37001400200040
:10062000ad0037000001be004a0007000470a700bb
:1006300003f0a1006509b100160032000d0035007d
:100640006828e10006003500f0ff2f00f1ff2700c9
:100650000300e00013003b0001002800000005003b
:1006600000004000818048008502e900fcff3a005c
:1006700008003700f88f420002003c008000eb00c9
:10068000000005008100d1000080d3008502e80051
:10069000fcff3a000300e00002003b006000100095
:1006a000e0801800000006004f89de00820178001b
:1006b000a40037006011b800b200370081002000ac
:1006c000618055000b003d000b00200061fe2f00f3
:1006d0000100e1001d0034008281710061016400ad
:1006e0008904d1000884d3000000e800faff3a0032
:1006f00071002000610064000300700002006000cf
:100700000900320061044400e0844c000988a5001f
:10071000050032008b05e8006808e10002003a009d
:100720008904d1000884d300f20f20000258e100b0
:1007300005003d00c75ddd00f907b2008980750046
:1007400008007800000006000bf827008b007800f6
:1007500000000500c70ade00f107b200f50fb20085
:1007600008003200e1cf4200020032000170a00018
:1007700024000500810f700001003200040805000c
:1007800044000500810f700002003a0014000500cb
:100790008502e9000000400081c04800fcff3b00ea
:1007a0000170a000240005000004be00e9ff07005e
:1007b0000003be000405be000200be00e5ff070006
:1007c000844f7500000006000200be006450e10086
:1007d000050036006420e100020036000968a3002d
:1007e00001003a000800be000160a0004f0678003a
:1007f0004f05be004f04be0000000600f0ff2f00b2
:10080000f1ff2700f9ff3700889fbe008a9fbe00d6
:100810008c1f7800e4ff0700ebff330003866c00b9
:100820006450e100240032006420e100270032001f
:100830006150e100220032006120e100210032001d
:100840008b854200eb07b1000134b800003ab800d4
:100850000804420089844a00013ab8000030b80018
:100860008880400009014a00040033000000400075
:1008700081804800020149008b05e900c909dd00bb
:10088000830170000100320013002000c814de0054
:100890004814dd004709de001200b200c808de007f
:1008a0000884700085ff070001f0a1000cf0a7008c
:1008b00001f0a000cdff37006120e100cfff320042
:1008c0000801be000200be00f7ff37006150e100e2
:1008d000fcff3a00c9ff3700889fbe008a9fbe0018
:1008e000841f7800b0ff07004f007800110033002c
:1008f000f0ff2f00838f6c0006003b0004056500ad
:100900000a00a7000800370009f0a6001000200028
:1009100008003700820f5400838f5c000300390009
:100920001000200001003e000000200009f0a70098
:100930000000ea004f05be004f04be000000e000ca
:1009400000000600881f7800030478000300e00020
:1009500007003d0060001000e080180060011900f1
:10096000e081190002003b0001f02d000300370078
:100970000400070008f0a70001f0a0004f04780071
:1009800000000600889fbe008a9fbe0000827000a3
:100990000402710004827100260032000004be00cf
:1009a0000200be006011b8006b0920009502200013
:1009b0000182cf000a0039000541b1000082cf005a
:1009c000070039000541b1000982cf000400390059
:1009d0000541b1000882cf00010039000541b10096
:1009e00005425200120032000a003b008281710071
:1009f000610164008100d1000080d3008984d300ac
:100a00000884d3008b05e8000442e800f7ff3a00b1
:100a1000070037000804440089844c0000004800a7
:100a2000818048008b05e9000442e900f9ff3a00a3
:100a300022ff07004f05be004f04be000000060065
:020000040000fa
:100a400000000000008000000040000000200000c6
:100a50000010000000080000000400000002000078
:100a600000010000800000004000000020000000a5
:100a70001000000008000000040000000200000058
:100a800001000000bc000000f80700005e0000004c
:080a900040010000e407000032
:020000040000fa
:100a98000c00fa0081498000604980000080500005
:100aa800cf80de00fefe0700008fbe009149800067
:100ab8007049800000805000cf80de00f8fe0700fb
:100ac80020079800310798001e01be002e009000f4
:100ad800be0090008dfe070020498800314988003b
:100ae800604980000000ea00cf80de00ecfe0700cd
:100af800008fbe0020498000314980000001be00ff
:100b08001e00be003eff07004007980051079800ee
:100b180070498000cf80de00e1fe07004e019000a2
:100b2800de0190001cfe07004049880051498800fa
:100b38000080fa00000006000000fa00e001200032
:100b4800100888000021ef00000028002008880015
:100b58000080eb00a0048800d0432000101188001a
:100b68002022ef0021e2a80010002000d0498800d0
:100b78003c29ef0010002000f04988008460a9009b
:100b880085e0a9008620a9008640a90088e0a90080
:100b98008500a900ff3ffc008c60a8008d00a8001c
:100ba8005220ef000080fa0000000600809fbe007f
:100bb8000000fa00cae2a900f0498000e30f5000e3
:100bc80027003e00dc22a800c04980000000e000a9
:100bd80006003a00302a840010088800dc02a900c8
:100be80010002000c04988009d003700c0498000df
:100bf800e10f500006003a00202a840010088800ff
:100c0800dc02a80020002000c049880094003700ba
:100c1800c0498000e20f500006003a00302a8400e4
:100c280010088800dc02a90030002000c0498800b4
:100c38008b003700c0498000e30f500088003a005d
:100c4800202a840010088800dc02a8003829ef0058
:100c5800f04980000000e800f04988008000370073
:100c6800f0498000e60f500027003e00dc22a90072
:100c7800c04980000000e00006003a00202a8400f5
:100c880010088800dc02a90010002000c049880074
:100c980073003700c0498000e10f500006003a0099
:100ca800102a840010088800dc02a8002000200018
:100cb800c04988006a003700c0498000e20f500030
:100cc80006003a00202a840010088800dc02a900e7
:100cd80030002000c049880061003700c04980000a
:100ce800e30f50005e003a00102a840010088800c4
:100cf800dc02a8003829ef00f04980000000e80075
:100d0800f049880056003700f0498000e90f50008c
:100d180014003e00c04980000000e00006003a00d0
:100d2800302a840010088800dc02a9001000200086
:100d3800c04988004a003700c0498000e10f5000d0
:100d480047003a00202a840010088800dc22a80006
:100d58003829ef00f04980000000e800f0498800d9
:100d68003f003700d0498000e10f500006003a00ec
:100d7800102a840010088800dc22ef0020002000e0
:100d8800d049880036003700d0498000e20f500073
:100d980007003a00402a840010088800100020004c
:100da800e016880030002000d04988002c00370069
:100db800502a84001008880010002000e0168800df
:100dc800f0498000f30f5000170036003c29ef006f
:100dd80020c2a900e049800080004000008d20006a
:100de80000804000100078002011880000000000fa
:100df80000000000e04980000000e800e0498800a9
:100e080020c2a900e049800080004000008d200039
:100e1800008040001000780020118800e049800020
:100e28000000e800e049880010002000d049880050
:100e3800f1498000c00d2000808f500005003a0065
:100e480010002000f049880010c0b30019e9b7006d
:100e580003003700f04980000000e800f0498800ee
:100e680005e1a8008460a9000080fa004f00be00d8
:100e780000400600809fbe000000fa00e0498000a4
:100e8800e60f500011003e0020c2a900e049800092
:100e980080004000008d2000008040001000780095
:100ea80020118800e049800080004000008d20006b
:100eb800008040008000eb0001087800e0498000d5
:100ec8000000e800e0498800030037003c29ef00f3
:100ed80010c0b30016e9b7008500a9000080fa0029
:100ee8004f00be00004006000000fa0016c9bf000f
:100ef800e14f500022003a00f1498000704780001d
:100f080000805000a0488800a04880000080e800c9
:100f1800a0488800f04980000080e80070478800f9
:100f28002f0107001669ef00ec28ef000f003700cb
:100f380060478000c200dd00008020000080400083
:100f48001000be000200200003f82300b1fd0700d6
:100f58000000e00002003a000b0007000300370021
:100f6800604780000000e800604788006147800013
:100f780020032000808f5000edff3a001669ef0033
:100f88000080fa00000006000000fa0060478000b8
:100f98000000e8006047880060478000c200dd006c
:100fa80000802000008040001000be00204988001a
:100fb80031498800604780000000e80060478800e9
:100fc80060478000c200dd000080200000804000f3
:100fd8001000be00404988005149880060478000e1
:100fe8000000e8006047880060478000c200dd001c
:100ff80000802000008040001000be0087fd070030
:101008000000780060498800604780000000e80020
:101018006047880060478000c200dd000080200033
:10102800008040001000be007cfd07000000780032
:1010380070498800604780000000e8006047880029
:1010480060478000c200dd00008020000080400072
:101058001000be0071fd070000007800804988007c
:10106800604780000000e800604788006047800013
:10107800c200dd0000802000008040001000be009b
:1010880066fd0700000078009049880060478000ee
:101098000000e800604788006149800080498000be
:1010a800808f50000c00340060498000a0498800ff
:1010b8008049800060498800a049800080498800f4
:1010c80070498000b04988009049800070498800c4
:1010d800b0498000904988007147800060498000cd
:1010e80000805000a0498800714780008049800036
:1010f80000805000b0498800a04980000000e0004e
:101108003c003500b04980000000e00039003c0098
:101118006149800080498000808f500005003a00b6
:1011280090498000f048880070498000e0488800b5
:10113800150037007149800090498000808f500069
:1011480005003a0070498000e04888007049800036
:10115800f04888000c00370071478000a0488000e4
:10116800008050007047880024000700e048800095
:10117800f048880071478000a04880000080400047
:10118800704788001d000700e1488000f048800093
:10119800808f500012003a00ac000700150037009d
:1011a800aa000700e1488000f0488000808f5000c6
:1011b80003003400e04880000000e900e0488800af
:1011c800e1488000f0488000808f500005003d0015
:1011d800e04880000000e800e0488800010037008f
:1011e80000000000e1488000f0488000808f500037
:1011f800ebff3a000080fa00000006000000fa0049
:10120800704780008000eb0028fd070040468800fa
:101218005146880044468000554680002049800099
:10122800314980000001be000400be0074fd0700c3
:1012380060468800714688006446800075468000d4
:1012480040498000514980000001be000400be00f2
:1012580051fc0700f1fc070000007800e048880016
:101268000080fa00000006000000fa00ec28ef00f9
:101278005500370060478000c200dd000080200074
:10128800008040001000be000200200003f8230088
:10129800e0fc07000000e00048003a0060478000da
:1012a800630040006047880060478000c200dd009e
:1012b80000802000008040001000be00d7fc07001e
:1012c8000000780060498800604780000000e8005e
:1012d8006047880060478000c200dd000080200071
:1012e800008040001000be00ccfc07000000780021
:1012f80070498800604780000000e8006047880067
:1013080060478000c200dd000080200000804000af
:101318001000be00c1fc070000007800804988006a
:10132800604780000000e800604788006047800050
:10133800c200dd0000802000008040001000be00d8
:10134800b6fc0700000078009049880060478000dc
:101358000000e80060478800cdfd07006047800076
:10136800660050006047880062478000204980007e
:1013780031498000c211dd00028020000281410055
:101388000089be00604780000000e80060478800d0
:10139800624780004049800051498000c211dd0049
:1013a80002802000028141000089be006047800061
:1013b80065004000604788000300370060478000f0
:1013c8000000e80060478800614780002003200093
:1013d800808f5000a7ff3a000080fa000000060046
:1013e8000000fa000c29ef00130037006048800065
:1013f8006148800001814000018f20008100410088
:101408009100780000014000008d2000000041009c
:10141800010878006048800080004000008f2000ac
:10142800008040008000eb000108780060488000e0
:101438000000e8006048880060488000e70f50001e
:10144800eaff3a000080fa00000006000000fa00f7
:10145800e04880000000e80000498800004980005a
:10146800f00f500012003c000c29ef00604880008b
:101478006148800001814000018f20008100410007
:101488001101780001498000818140000152280043
:101498008180410091007800828070000001400046
:1014a800008f200000004100010878009b003700f1
:1014b8000149800000022000808f500016003c0087
:1014c800100020006048880000498000700050002b
:1014d8000049880060488000614880000181400020
:1014e800018f20008100410011017800014980002e
:1014f80081814000015228008180410091007800dc
:101508008280700000014000008f20000000410030
:10151800010878008100370001498000000320009d
:10152800808f500016003c00200020006048880092
:10153800004980000002b10000498800604880002e
:101548006148800001814000018f20008100410036
:101558001101780001498000818140000152280072
:101568008180410091007800828070000001400075
:10157800008f200000004100010878006700370054
:101588000149800000042000808f500016003c00b4
:101598003000200060488800004980000003b10046
:1015a800004988006048800061488000018140004f
:1015b800018f20008100410011017800014980005d
:1015c800818140000152280081804100910078000b
:1015d8008280700000014000008f20000000410060
:1015e800010878004d0037000149800000052000ff
:1015f800808f500016003c004000200060488800a2
:10160800004980000004b10000498800604880005b
:101618006148800001814000018f20008100410065
:1016280011017800014980008181400001522800a1
:1016380081804100910078008280700000014000a4
:10164800008f2000000041000108780033003700b7
:101658000149800000062000808f500016003c00e1
:101668005000200060488800004980000005b10053
:10167800004988006048800061488000018140007e
:10168800018f20008100410011017800014980008c
:10169800818140000152280081804100910078003a
:1016a8008280700000014000008f2000000041008f
:1016b8000108780019003700014980000007200060
:1016c800808f500015003c006000200060488800b2
:1016d800004980000006b100004988006048800089
:1016e8006148800001814000018f20008100410095
:1016f80011017800014980008181400001522800d1
:1017080081804100910078008280700000014000d3
:10171800008f200000004100010878000080fa00d6
:10172800000006000000fa00004a8000e40f5000a4
:1017380016003a004029ef0046c9bf000004e00047
:1017480004003a00604a80000000e900604a88000e
:1017580003003700604a80000000e800604a880003
:1017680047c9bf000004e00004003a00704a800046
:101778000000e900704a880007003700704a8000be
:101788000000e800704a880003003700004a800023
:101798000000e800004a8800104a8000e20f50006c
:1017a80016003a004229ef0048c9bf000004e000d3
:1017b80004003a00804a80000000e900804a88005e
:1017c80003003700804a80000000e800804a880053
:1017d80049c9bf000004e00004003a00904a8000b4
:1017e8000000e900904a880007003700904a80000e
:1017f8000000e800904a880003003700104a800083
:101808000000e800104a8800204a8000e10f5000dc
:1018180016003a004429ef004ac9bf000004e0005e
:1018280004003a00a04a80000000e900a04a8800ad
:1018380003003700a04a80000000e800a04a8800a2
:101848004bc9bf000004e00004003a00b04a800021
:101858000000e900b04a880007003700b04a80005d
:101868000000e800b04a880003003700204a8000e2
:101878000000e800204a88000080fa000000060006
:101888000000fa00614a8000800c2000808f500020
:1018980001003a004669ef00604a8000f40f5000ea
:1018a80002003a0010c0b30046e9b700714a800050
:1018b80040062000808f500001003a004769ef0081
:1018c800704a8000e10f500002003a0010c0b300d7
:1018d80047e9b700814a8000800c2000808f5000c3
:1018e80001003a004869ef00804a8000f40f500078
:1018f80002003a0010c0b30048e9b700914a8000de
:1019080040062000808f500001003a004969ef002e
:10191800904a8000e10f500002003a0010c0b30066
:1019280049e9b700a14a8000800c2000808f500050
:1019380001003a004a69ef00a04a8000f40f500005
:1019480002003a0010c0b3004ae9b700b14a80006b
:1019580040062000808f500001003a004b69ef00dc
:10196800b04a8000e10f500002003a0010c0b300f6
:101978004be9b7000080fa00000006000000fa00fa
:10198800604a8000cf80de0045fb07008040880069
:1019980091408800704a8000cf80de0040fb07003d
:1019a800a0408800b1408800804a8000cf80de00d7
:1019b8003bfb0700c0408800d1408800904a800067
:1019c800cf80de0036fb0700e0408800f140880049
:1019d800804a8000cf80de0031fb0700604188002c
:1019e80071418800904a8000cf80de002cfb070000
:1019f8008041880091418800a04a8000cf80de00a5
:101a080027fb0700a0418800b1418800b04a800048
:101a1800cf80de0022fb0700c0418800d14188004a
:101a2800a04a8000cf80de001dfb070040428800ee
:101a380051428800b04a8000cf80de0018fb0700c2
:101a48006042880071428800604a8000cf80de00d2
:101a580013fb07008042880091428800704a80008a
:101a6800cf80de000efb0700a0428800b14288004c
:101a78000080fa00000006000000fa00c622ef000d
:101a8800ca22ef00d822ef00dc22ef00200020005d
:101a9800000e880028fc07000000200001f8230041
:101aa80020408800314088000000200001f8230011
:101ab80000418800114188000000200001f823003f
:101ac800e0418800f1418800e0012000604a880078
:101ad800e0012000704a880060092000804a8800e0
:101ae800a0052000904a880010092000a04a88001c
:101af80020032000b04a8800604a8000cf80de00c2
:101b0800e7fa07008040880091408800704a80000a
:101b1800cf80de00e2fa0700a0408800b1408800cc
:101b2800804a8000cf80de00ddfa0700c0408800d0
:101b3800d1408800904a8000cf80de00d8fa0700a4
:101b4800e0408800f1408800804a8000cf80de00b5
:101b5800d3fa07006041880071418800904a8000ec
:101b6800cf80de00cefa07008041880091418800ce
:101b7800a04a8000cf80de00c9fa0700a041880093
:101b8800b1418800b04a8000cf80de00c4fa070067
:101b9800c0418800d1418800a04a8000cf80de0083
:101ba800bffa07004042880051428800b04a8000ce
:101bb800cf80de00bafa07006042880071428800d0
:101bc800604a8000cf80de00b5fa070080428800b6
:101bd80091428800704a8000cf80de00b0fa07008a
:101be800a0428800b14288009ffd070019c9bf00c4
:101bf800e14f500005003a001969ef0020ff070087
:101c0800c8fe07005dff070097fd0700f049800048
:101c1800f10f500005003600f1498000c00d20008a
:101c2800808f500001003e00affc07000140fe001d
:041c3800eeff370084
:020000040000fa
:101c3c000008000058010000000000000000000037
:020000040000fa
:0200000401f009
:04000000e7bf000056
:020000040000fa
:0200000401f009
:04000400ff7f00007a
:020000040000fa
:0200000401f009
:040008007fff000076
:020000040000fa
:0200000401f009
:04001400ffff0000ea
:00000001FF
