:020000040000fa
:080000000001040000000000f3
:020000040000fa
:04000800c80100002b
:020000040000fa
:04000c00c801000027
:020000040000fa
:04001000c801000023
:020000040000fa
:04001400c80100001f
:020000040000fa
:04001800c80100001b
:020000040000fa
:04001c00c801000017
:020000040000fa
:04002000c801000013
:020000040000fa
:04002400c80100000f
:020000040000fa
:04002800c80100000b
:020000040000fa
:04002c00c801000007
:020000040000fa
:04003000c801000003
:020000040000fa
:0400340010040000b4
:020000040000fa
:04003800c8010000fb
:020000040000fa
:04003c00c8010000f7
:020000040000fa
:04004000c8010000f3
:020000040000fa
:04004400c8010000ef
:020000040000fa
:04004800740500003b
:020000040000fa
:04004c00c8010000e7
:020000040000fa
:04005000c8010000e3
:020000040000fa
:04005400c8010000df
:020000040000fa
:04005800c8010000db
:020000040000fa
:04005c00c8010000d7
:020000040000fa
:04006000c8010000d3
:020000040000fa
:04006400c8010000cf
:020000040000fa
:04006800c8010000cb
:020000040000fa
:04006c00c8010000c7
:020000040000fa
:04007000c8010000c3
:020000040000fa
:04007400c8010000bf
:020000040000fa
:04007800c8010000bb
:020000040000fa
:04007c00c8010000b7
:020000040000fa
:04008000c8010000b3
:020000040000fa
:04008400c8010000af
:020000040000fa
:04008800c8010000ab
:020000040000fa
:04008c00c8010000a7
:020000040000fa
:04009000c8010000a3
:020000040000fa
:04009400c80100009f
:020000040000fa
:04009800c80100009b
:020000040000fa
:04009c00c801000097
:020000040000fa
:0400a000c801000093
:020000040000fa
:0400a400c80100008f
:020000040000fa
:0400a800c80100008b
:020000040000fa
:0400ac00c801000087
:020000040000fa
:0400b000c801000083
:020000040000fa
:0400b400c80100007f
:020000040000fa
:0400b800c80100007b
:020000040000fa
:0400bc00c801000077
:020000040000fa
:0400c000c801000073
:020000040000fa
:0400c400c80100006f
:020000040000fa
:0400c800c80100006b
:020000040000fa
:0400cc00c801000067
:020000040000fa
:0400d000c801000063
:020000040000fa
:0400d400c80100005f
:020000040000fa
:0400d800c80100005b
:020000040000fa
:04010800c80100002a
:020000040000fa
:04010c00c801000026
:020000040000fa
:04011000c801000022
:020000040000fa
:04011400c80100001e
:020000040000fa
:04011800c80100001a
:020000040000fa
:04011c00c801000016
:020000040000fa
:04012000c801000012
:020000040000fa
:04012400c80100000e
:020000040000fa
:04012800c80100000a
:020000040000fa
:04012c00c801000006
:020000040000fa
:04013000c801000002
:020000040000fa
:04013400c8010000fe
:020000040000fa
:04013800c8010000fa
:020000040000fa
:04013c00c8010000f6
:020000040000fa
:04014000c8010000f2
:020000040000fa
:04014400c8010000ee
:020000040000fa
:04014800c8010000ea
:020000040000fa
:04014c00c8010000e6
:020000040000fa
:04015000c8010000e2
:020000040000fa
:04015400c8010000de
:020000040000fa
:04015800c8010000da
:020000040000fa
:04015c00c8010000d6
:020000040000fa
:04016000c8010000d2
:020000040000fa
:04016400c8010000ce
:020000040000fa
:04016800c8010000ca
:020000040000fa
:04016c00c8010000c6
:020000040000fa
:04017000c8010000c2
:020000040000fa
:04017400c8010000be
:020000040000fa
:04017800c8010000ba
:020000040000fa
:04017c00c8010000b6
:020000040000fa
:04018000c8010000b2
:020000040000fa
:04018400c8010000ae
:020000040000fa
:04018800c8010000aa
:020000040000fa
:04018c00c8010000a6
:020000040000fa
:04019000c8010000a2
:020000040000fa
:04019400c80100009e
:020000040000fa
:04019800c80100009a
:020000040000fa
:04019c00c801000096
:020000040000fa
:0401a000c801000092
:020000040000fa
:0401a400c80100008e
:020000040000fa
:0401a800c80100008a
:020000040000fa
:0401ac00c801000086
:020000040000fa
:0401b000c801000082
:020000040000fa
:0401b400c80100007e
:020000040000fa
:0401b800c80100007a
:020000040000fa
:0401bc00c801000076
:020000040000fa
:0401c000c801000072
:020000040000fa
:0401c400c80100006e
:020000040000fa
:0401c800c80100006a
:020000040000fa
:0401cc00c801000066
:020000040000fa
:0401d000c801000062
:020000040000fa
:0401d400c80100005e
:020000040000fa
:0401d800c80100005a
:020000040000fa
:100200008f8520000ebf20000e0188000000000036
:10021000000020000000e000020032000001200089
:1002200020028800140007005b0007000000e000c7
:1002300003003a00e05920000100200002003700ce
:100240000000200001002000810f7000010032003a
:1002500014000700000020000000e000020032004f
:100260000000020000000000360202000000000052
:100270000040da000000fe004440a9008006200093
:100280000000e0000300320000002000a001880010
:100290004440a800000006008a1f78008b1f7800e9
:1002a0000000060091018800800478000000eb0047
:1002b0001a003700e284440032a0b4009905ba0065
:1002c000e284440032a0b4009906ba00e2844400fb
:1002d00032a0b4000006eb00476fde00fd07b2005d
:1002e000636ce10003003a00ebff07000000eb0045
:1002f0000a003700606ce10004003a00005deb008a
:100300008b05e900fdff3e00040037006168e10055
:10031000010032000086eb000b00070019c7ba008d
:100320001905ba000e04e00003003a000a00e000dc
:10033000e0ff3a0000000600fe07b2009e018800c0
:100340008a047800f5ff3700395dba008b05e900b3
:100350000c003200295dba008b05e900080032006c
:100360000c00e00003003a00e284440032a0b40034
:10037000f5ff370019ddba008b05e900faff3a00f6
:100380008904e800e184440032a0b40000000600c3
:0c0390000040da000000fe000000050044
:020000040000fa
:10039c007f00000045000000040000000800000081
:1003ac004800000028000000300000003c00000065
:1003bc0024000000240000003c000000420000006b
:1003cc0042000000c3000000cc00000054000000fc
:1003dc0062000000410000004000000040000000ee
:1003ec0040000000fe000000400000004000000043
:1003fc00780000004000000040000000fe000000fb
:10040c007f00000049000000080000000800000008
:10041c0008000000080000001c000000180000008c
:10042c001800000018000000180000003c0000003c
:10043c007e000000ff000000db0000001800000040
:10044c001800000018000000180000003c0000001c
:10045c003c0000001800000018000000180000000c
:020000040000fa
:10046c000000fa00c622ef00ca22ef00d822ef00eb
:10047c00dc22ef0020002000000e8800e0012000ac
:10048c00100888000021ef000000280020088800d8
:10049c000080eb00a0048800b043200010118800fd
:1004ac002022ef00e005200000408800f002200030
:1004bc00204088008020200010408800000a200086
:1004cc0040408800203f200050408800e001200080
:1004dc0060408800100020007040880080002000e0
:1004ec0080408800d0002000404288004a28ef005d
:1004fc0010002000604288008460a90085e0a900fb
:10050c008620a9008640a90088e0a9008500a900e2
:10051c00ff3ffc008c60a8008d00a8005220ef006b
:10052c00700f2f0090408800f0ff2000f0418800f1
:10053c00000f2f0000428800000f2f00104288008f
:10054c000080eb0020428800f0f02f003042880041
:10055c0060428000e10f500011003a00a042800080
:10056c00e50f50000b003a005428ef009042800039
:10057c00e10f500003003e00a00f200090428800c5
:10058c0007003700904280000000e900904288008c
:10059c0003003700a04280000000e800a042880061
:1005ac009042800071004000b0428800614280009f
:1005bc0090428000808f50000f0039006142800013
:1005cc00b0428000808f50000b003e0061428000e2
:1005dc009042800000805000804288008042800061
:1005ec00800040004021280000804000100078006e
:1005fc00a0408800010037001428ef006142800001
:10060c0030062000808f50000e00360061428000c2
:10061c00a0062000808f50000a003e00604280003f
:10062c004006b1008042880080428000800040007b
:10063c00e01c28000080400010007800b0408800ca
:10064c00010037001628ef006142800030062000c0
:10065c00808f50000e00360061428000a006200002
:10066c00808f50000a003e00604280004006b100be
:10067c00804288008042800080004000c01d28001d
:10068c000080400010007800c04088000100370056
:10069c001828ef006142800030062000808f500047
:1006ac000e00360061428000a0062000808f5000b2
:1006bc000a003e00604280004006b1008042880083
:1006cc008042800080004000a01e28000080400076
:1006dc0010007800d0408800010037001a28ef0085
:1006ec006142800030062000808f50000e003600e2
:1006fc0061428000a0062000808f50000a003e005e
:10070c00604280004006b100804288008042800038
:10071c0080004000a01e28000080400010007800df
:10072c00e0408800010037001c28ef006142800087
:10073c0030062000808f50000e0036006142800091
:10074c00a0062000808f50000a003e00604280000e
:10075c004006b1008042880080428000800040004a
:10076c00801f28000080400010007800f0408800b6
:10077c00010037001e28ef00614280003006200087
:10078c00808f50000e00360061428000a0062000d1
:10079c00808f50000a003e00604280004006b1008d
:1007ac008042880080428000800040006020280049
:1007bc0000804000100078000041880001003700e4
:1007cc002028ef006142800030062000808f50000e
:1007dc000e00360061428000a0062000808f500081
:1007ec000a003e00604280004006b1008042880052
:1007fc008042800080004000602028000080400083
:10080c00100078001041880045ff37002228ef00c7
:10081c0043ff3700809fbe000000fa00cae2a90027
:10082c0060428000e30f500027003e00dc22a8004d
:10083c00304080000000e00006003a0020408000bc
:10084c0010088800dc02a90010002000304088004d
:10085c009d00370030408000e10f500006003a0048
:10086c001040800010088800dc02a8002000200046
:10087c00304088009400370030408000e20f500078
:10088c0006003a002040800010088800dc02a90015
:10089c0030002000304088008b0037003040800052
:1008ac00e30f500088003a001040800010088800c8
:1008bc00dc02a8000628ef00604280000000e8007f
:1008cc00604288008000370060428000e60f5000d4
:1008dc0027003e00dc22a900304080000000e00030
:1008ec0006003a001040800010088800dc02a900c5
:1008fc00100020003040880073003700304080002a
:10090c00e10f500006003a000040800010088800fb
:10091c00dc02a80020002000304088006a0037006c
:10092c0030408000e20f500006003a00104080007a
:10093c0010088800dc02a90030002000304088003c
:10094c006100370030408000e30f50005e003a0039
:10095c000040800010088800dc02a8000628ef0088
:10096c00604280000000e8006042880056003700ba
:10097c0060428000e90f500014003e0030408000bf
:10098c000000e00006003a002040800010088800bb
:10099c00dc02a90010002000304088004a0037001b
:1009ac0030408000e10f500047003a0010408000ba
:1009bc0010088800dc22a8000628ef0060428000a6
:1009cc000000e800604288003f0037007040800063
:1009dc00e10f500006003a0000408000100888002b
:1009ec00dc22ef0020002000704088003600370029
:1009fc0070408000e20f500007003a004040800039
:100a0c001008880010002000e0168800300020003c
:100a1c00704088002c00370050408000100888007f
:100a2c0010002000e016880060428000f30f500098
:100a3c001800360020c2a9004828ef0021e2a800c7
:100a4c004042800080004000208120000080400057
:100a5c001000780020118800000000000000000049
:100a6c00404280000000e8004042880020c2a900fb
:100a7c004042800080004000208120000080400027
:100a8c001000780020118800404280000000e8002f
:100a9c00404288004a28ef00100020007040880077
:100aac0061428000c00d2000808f500003003a008e
:100abc001000200060428800030037006042800074
:100acc000000e8006042880005e1a8008460a900ed
:100adc000080fa004f00be0000400600809fbe0060
:100aec000000fa0040428000fa0f50000b003e005c
:100afc0020c2a900404280008000400020812000dc
:100b0c0000804000100078002011880040428000d6
:100b1c000000e80040428800010037004828ef0040
:100b2c008500a9000080fa004f00be0000400600be
:020000040000fa
:100b3c000008000058000000000000000000000049
:020000040000fa
:0200000401f009
:04000000e6bf000057
:020000040000fa
:0200000401f009
:04000400ff7f00007a
:020000040000fa
:0200000401f009
:040008007fff000076
:020000040000fa
:0200000401f009
:04001400ffff0000ea
:00000001FF
