:020000040000fa
:080000000001040000000000f3
:020000040000fa
:04000800c80100002b
:020000040000fa
:04000c00c801000027
:020000040000fa
:04001000c801000023
:020000040000fa
:04001400c80100001f
:020000040000fa
:04001800c80100001b
:020000040000fa
:04001c00c801000017
:020000040000fa
:04002000c801000013
:020000040000fa
:04002400c80100000f
:020000040000fa
:04002800c80100000b
:020000040000fa
:04002c00c801000007
:020000040000fa
:04003000c801000003
:020000040000fa
:04003400d6030000ef
:020000040000fa
:04003800c8010000fb
:020000040000fa
:04003c00c8010000f7
:020000040000fa
:04004000c8010000f3
:020000040000fa
:04004400c8010000ef
:020000040000fa
:04004800c8010000eb
:020000040000fa
:04004c00c8010000e7
:020000040000fa
:04005000c8010000e3
:020000040000fa
:04005400c8010000df
:020000040000fa
:04005800c8010000db
:020000040000fa
:04005c00c8010000d7
:020000040000fa
:04006000c8010000d3
:020000040000fa
:04006400c8010000cf
:020000040000fa
:04006800c8010000cb
:020000040000fa
:04006c00c8010000c7
:020000040000fa
:04007000c8010000c3
:020000040000fa
:04007400c8010000bf
:020000040000fa
:04007800c8010000bb
:020000040000fa
:04007c00c8010000b7
:020000040000fa
:04008000c8010000b3
:020000040000fa
:04008400c8010000af
:020000040000fa
:04008800c8010000ab
:020000040000fa
:04008c00c8010000a7
:020000040000fa
:04009000c8010000a3
:020000040000fa
:04009400c80100009f
:020000040000fa
:04009800c80100009b
:020000040000fa
:04009c00c801000097
:020000040000fa
:0400a000c801000093
:020000040000fa
:0400a400c80100008f
:020000040000fa
:0400a800c80100008b
:020000040000fa
:0400ac00c801000087
:020000040000fa
:0400b000c801000083
:020000040000fa
:0400b400c80100007f
:020000040000fa
:0400b800c80100007b
:020000040000fa
:0400bc00c801000077
:020000040000fa
:0400c000c801000073
:020000040000fa
:0400c400c80100006f
:020000040000fa
:0400c800c80100006b
:020000040000fa
:0400cc00c801000067
:020000040000fa
:0400d000c801000063
:020000040000fa
:0400d400c80100005f
:020000040000fa
:0400d800c80100005b
:020000040000fa
:04010800c80100002a
:020000040000fa
:04010c00c801000026
:020000040000fa
:04011000c801000022
:020000040000fa
:04011400c80100001e
:020000040000fa
:04011800c80100001a
:020000040000fa
:04011c00c801000016
:020000040000fa
:04012000c801000012
:020000040000fa
:04012400c80100000e
:020000040000fa
:04012800c80100000a
:020000040000fa
:04012c00c801000006
:020000040000fa
:04013000c801000002
:020000040000fa
:04013400c8010000fe
:020000040000fa
:04013800c8010000fa
:020000040000fa
:04013c00c8010000f6
:020000040000fa
:04014000c8010000f2
:020000040000fa
:04014400c8010000ee
:020000040000fa
:04014800c8010000ea
:020000040000fa
:04014c00c8010000e6
:020000040000fa
:04015000c8010000e2
:020000040000fa
:04015400c8010000de
:020000040000fa
:04015800c8010000da
:020000040000fa
:04015c00c8010000d6
:020000040000fa
:04016000c8010000d2
:020000040000fa
:04016400c8010000ce
:020000040000fa
:04016800c8010000ca
:020000040000fa
:04016c00c8010000c6
:020000040000fa
:04017000c8010000c2
:020000040000fa
:04017400c8010000be
:020000040000fa
:04017800c8010000ba
:020000040000fa
:04017c00c8010000b6
:020000040000fa
:04018000c8010000b2
:020000040000fa
:04018400c8010000ae
:020000040000fa
:04018800c8010000aa
:020000040000fa
:04018c00c8010000a6
:020000040000fa
:04019000c8010000a2
:020000040000fa
:04019400c80100009e
:020000040000fa
:04019800c80100009a
:020000040000fa
:04019c00c801000096
:020000040000fa
:0401a000c801000092
:020000040000fa
:0401a400c80100008e
:020000040000fa
:0401a800c80100008a
:020000040000fa
:0401ac00c801000086
:020000040000fa
:0401b000c801000082
:020000040000fa
:0401b400c80100007e
:020000040000fa
:0401b800c80100007a
:020000040000fa
:0401bc00c801000076
:020000040000fa
:0401c000c801000072
:020000040000fa
:0401c400c80100006e
:020000040000fa
:0401c800c80100006a
:020000040000fa
:0401cc00c801000066
:020000040000fa
:0401d000c801000062
:020000040000fa
:0401d400c80100005e
:020000040000fa
:0401d800c80100005a
:020000040000fa
:100200006f8220000ebf20000e0188000000000059
:10021000000020000000e000020032000001200089
:1002200020028800140007005b0007000000e000c7
:1002300003003a00005520000100200002003700b2
:100240000000200001002000810f7000010032003a
:1002500014000700000020000000e000020032004f
:100260000000020000000000020202000000000086
:100270000040da000000fe004440a90040032000d6
:100280000000e0000300320000002000a001880010
:100290004440a800000006008a1f78008b1f7800e9
:1002a0000000060091018800800478000000eb0047
:1002b0001a003700e284440032a0b4009905ba0065
:1002c000e284440032a0b4009906ba00e2844400fb
:1002d00032a0b4000006eb00476fde00fd07b2005d
:1002e000636ce10003003a00ebff07000000eb0045
:1002f0000a003700606ce10004003a00005deb008a
:100300008b05e900fdff3e00040037006168e10055
:10031000010032000086eb000b00070019c7ba008d
:100320001905ba000e04e00003003a000a00e000dc
:10033000e0ff3a0000000600fe07b2009e018800c0
:100340008a047800f5ff3700395dba008b05e900b3
:100350000c003200295dba008b05e900080032006c
:100360000c00e00003003a00e284440032a0b40034
:10037000f5ff370019ddba008b05e900faff3a00f6
:100380008904e800e184440032a0b40000000600c3
:0c0390000040da000000fe000000050044
:020000040000fa
:10039c007f4500000408000048280000303c0000a5
:1003ac00242400003c42000042c30000cc54000056
:1003bc00624100004040000040fe00004040000050
:1003cc007840000040fe00007f4900000808000053
:1003dc00080800001c18000018180000183c000049
:1003ec007eff0000db18000018180000183c00000d
:0803fc003c1800001818000075
:020000040000fa
:100404000000fa00c622ef00ca22ef00d822ef0053
:10041400dc22ef0020002000000e8800e001200014
:10042400100888000021ef00000028002008880040
:1004340000002100a0048800e0c5b30000e8b70074
:10044400f0c2b30004e8b700802020001040880008
:10045400a0cab30006e8b70000412000404088006d
:10046400e0c1b3000ae8b70010c0b3000be8b7005e
:1004740080c0b3000ce8b700d0002000c040880062
:100484001a68ef0010002000e04088008460a90092
:1004940085e0a9008620a9008640a90088e0a9007b
:1004a400ff3ffc008c60a8005220ef0000c0eb006e
:1004b4000de8b70000c0eb0016e8b70000c0eb0081
:1004c40017e8b700e0408000e10f500011003a0047
:1004d40022c8bf00e54f50000b003a002268ef002d
:1004e40000418000e10f500003003e00a00f2000f7
:1004f4000041880007003700004180000000e90047
:10050400004188000300370022c8bf000040e80013
:1005140022e8b700004180007100400020418800bb
:10052400e140800000418000808f500010003900bd
:10053400e140800020418000808f50000c003e008c
:10054400e040800080407800004180000040780056
:1005540000c050001fe8b7001fc8bf000080fb00a8
:10056400111f2800614078000ee8b7000100370031
:100574000e68ef00e140800030062000808f5000bc
:100584000f003600e1408000a0062000808f50005c
:100594000b003e00e040800080407800c0c9b300fa
:1005a40000c040001fe8b7001fc8bf000080fb0068
:1005b400e11c2800614078000fe8b7000100370013
:1005c4000f68ef00e140800030062000808f50006b
:1005d4000f003600e1408000a0062000808f50000c
:1005e4000b003e00e040800080407800c0c9b300aa
:1005f40000c040001fe8b7001fc8bf000080fb0018
:10060400511d28006140780010e8b7000100370050
:100614001068ef00e140800030062000808f500019
:100624000f003600e1408000a0062000808f5000bb
:100634000b003e00e040800080407800c0c9b30059
:1006440000c040001fe8b7001fc8bf000080fb00c7
:10065400c11d28006140780011e8b700010037008f
:100664001168ef00e140800030062000808f5000c8
:100674000f003600e1408000a0062000808f50006b
:100684000b003e00e040800080407800c0c9b30009
:1006940000c040001fe8b7001fc8bf000080fb0077
:1006a400c11d28006140780012e8b700010037003e
:1006b4001268ef00e140800030062000808f500077
:1006c4000f003600e1408000a0062000808f50001b
:1006d4000b003e00e040800080407800c0c9b300b9
:1006e40000c040001fe8b7001fc8bf000080fb0027
:1006f400311e28006140780013e8b700010037007c
:100704001368ef00e140800030062000808f500025
:100714000f003600e1408000a0062000808f5000ca
:100724000b003e00e040800080407800c0c9b30068
:1007340000c040001fe8b7001fc8bf000080fb00d6
:10074400a11e28006140780014e8b70001003700ba
:100754001468ef00e140800030062000808f5000d4
:100764000f003600e1408000a0062000808f50007a
:100774000b003e00e040800080407800c0c9b30018
:1007840000c040001fe8b7001fc8bf000080fb0086
:10079400a11e28006140780015e8b70043ff370028
:1007a4001568ef0041ff3700809fbe000000fa008b
:1007b400cae2a900e0408000e30f500029003e0097
:1007c400dc22a80005c8bf000004e00007003a00ce
:1007d40004c8bf000080fb0010088800dc02a900e8
:1007e40010c0b30005e8b700a700370005c8bf0074
:1007f400e14f500006003a001040800010088800c5
:10080400dc02a80020c0b30005e8b7009e00370052
:1008140005c8bf00e24f500007003a0004c8bf00fb
:100824000080fb0010088800dc02a90030c0b3007f
:1008340005e8b7009400370005c8bf00e34f500037
:1008440091003a001040800010088800dc02a800e3
:100854000568ef00e04080000000e800e040880008
:1008640089003700e0408000e60f500029003e0078
:10087400dc22a90005c8bf000004e00006003a001d
:100884001040800010088800dc02a90010c0b300ea
:1008940005e8b7007c00370005c8bf00e14f5000f1
:1008a40007003a0000c8bf000080fb001008880061
:1008b400dc02a80020c0b30005e8b70072003700ce
:1008c40005c8bf00e24f500006003a001040800007
:1008d40010088800dc02a90030c0b30005e8b700a6
:1008e4006900370005c8bf00e34f500066003a00b6
:1008f40000c8bf000080fb0010088800dc02a800cc
:100904000568ef00e04080000000e800e040880057
:100914005d003700e0408000e90f500015003e0004
:1009240005c8bf000004e00007003a0004c8bf0087
:100934000080fb0010088800dc02a90010c0b3008e
:1009440005e8b7005000370005c8bf00e14f50006c
:100954004d003a001040800010088800dc02a80016
:100964000568ef00e04080000000e800e0408800f7
:10097400450037000bc8bf00e14f500007003a00a4
:1009840004c8bf000080fb0010088800dc22ef00d0
:1009940020c0b3000be8b7003b0037000bc8bf0012
:1009a400e24f500008003a0006c8bf000080fb0078
:1009b4001008880010002000e016880030c0b30042
:1009c4000be8b70030003700404080001008880072
:1009d40010002000e01688001a003700e040800074
:1009e400f30f500002003e00ca22ef000d00370052
:1009f400c1408000d080200000804000104078007a
:100a04000080fb0050168800000000000000000079
:100a140004003700ca22d6000cc8bf000040e8001a
:100a24000ce8b7000cc8bf00e74f5000f9ff3600d0
:100a3400ca22ef000c68ef00c04080000000e8000c
:100a4400c0408800c0408000e90f5000e3ff36003a
:100a54001828ef0010c0b3000be8b7001a68ef00c5
:100a6400e1408000c00d2000808f500003003a0058
:100a740010002000e040880003003700e0408000c0
:100a84000000e800e040880005e1a8008460a900b7
:0c0a94000080fa004f00be000040060089
:020000040000fa
:100aa0000008000026000000000000000000000018
:020000040000fa
:0200000401f009
:04000000e6bf000057
:020000040000fa
:0200000401f009
:04000400ff7f00007a
:020000040000fa
:0200000401f009
:040008007fff000076
:020000040000fa
:0200000401f009
:04001400ffff0000ea
:00000001FF
